:020000040800F2
:100000000004002091020008ED020008ED02000843
:10001000ED020008ED020008ED02000800000000FB
:10002000000000000000000000000000ED020008D9
:10003000ED02000800000000ED020008790200084F
:10004000ED020008ED020008ED020008ED020008D4
:10005000ED020008ED020008ED020008ED020008C4
:10006000ED020008ED020008ED020008ED020008B4
:10007000ED020008ED020008ED020008ED020008A4
:10008000ED020008ED020008ED020008000000008B
:10009000000000000000000000000000ED02000869
:1000A000ED020008ED020008ED020008ED02000874
:1000B000ED020008ED020008ED020008ED02000864
:1000C000ED020008ED020008ED020008ED02000854
:1000D000ED020008ED020008ED020008ED02000844
:1000E000ED020008ED020008ED020008ED02000834
:1000F000ED020008ED020008000000000000000012
:10010000ED02000800000000ED020008ED0200080A
:10011000ED020008ED020008ED020008ED02000803
:10012000ED020008ED020008ED020008ED020008F3
:10013000ED0200085FF808F180B500AF164A164BD3
:100140001B6843F0010313601349134B5A68134BA8
:1001500013404B60104A104B1B6823F0847323F448
:10016000803313600C4A0C4B1B6823F4802313600C
:10017000094A094B5B6823F4FE035360064B4FF4B6
:100180001F029A60044B0022DA6200F00BF8044B65
:100190004FF000629A6080BD001002400000FFF83E
:1001A00000ED00E080B500AF00F002F880BD00BFB8
:1001B00080B483B000AF00237B6000233B60234A00
:1001C000224B1B6843F480331360204B1B6803F4FD
:1001D00000333B607B6801337B603B68002B03D1BD
:1001E0007B68B3F5A06FF0D1184B1B6803F40033A4
:1001F000002B02D001233B6001E000233B603B6801
:10020000012B1ED1114A114B5B6853600F4A0F4BF3
:100210005B6853600D4A0D4B5B6853600B4A0B4B98
:100220005B6823F003035360084A084B5B6843F0A4
:100230000103536000BF054B5B6803F00C03042B04
:10024000F9D10C37BD465DF8047B704700100240C1
:1002500080B400AFBD465DF8047B704780B500AF49
:1002600000F002F8FEE700BF80B500AFFFF7F0FF37
:1002700000F008F880BD00BF80B400AFBD465DF857
:10028000047B704780B400AFBD465DF8047B7047C7
:1002900080B582B000AF104B7B60104B3B6007E035
:1002A0003B681A1D3A607A68111D796012681A60FD
:1002B0003B680B4A9342F3D30A480B494FF00002C4
:1002C0008842B8BF40F8042BFADBFFF735FFFFF791
:1002D000C5FF0837BD4680BDF402000800000020BD
:1002E00000000020000000200000002080B400AFCB
:0402F000FEE700BF66
:0400000508000000EF
:00000001FF
