:020000040800F2
:1000000038080020AD150008091600080916000878
:10001000091600080916000809160008000000006B
:1000200000000000000000000000000009160008A9
:10003000091600080000000009160008310F00082A
:100040000916000809160008091600080916000814
:100050000916000809160008091600080916000804
:1000600009160008091600080916000809160008F4
:1000700009160008091600080916000809160008E4
:1000800009160008091600080916000800000000FB
:100090000000000000000000000000000916000839
:1000A00009160008091600080916000809160008B4
:1000B00009160008091600080916000809160008A4
:1000C0000916000809160008091600080916000894
:1000D00009160008350B0008091600080916000863
:1000E0000916000809160008091600080916000874
:1000F00009160008091600080000000000000000B2
:10010000091600080000000009160008091600087A
:100110000916000809160008091600080916000843
:100120000916000809160008091600080916000833
:10013000091600085FF808F180B485B000AF786058
:1001400039600023FB817B681B88FB817B682E4A1A
:10015000934213D07B682D4A93420FD07B68B3F152
:10016000804F0BD07B682A4A934207D07B68294A8C
:10017000934203D07B68284A934208D1FB8923F03D
:100180007003FB813B685A88FB891343FB817B68C2
:10019000224A93420CD07B68214A934208D0FB89C3
:1001A00023F44073FB813B68DA88FB891343FB81AE
:1001B0007B68FA891A803B689A887B689A853B68D5
:1001C0001A887B681A857B680F4A93420FD07B6838
:1001D0000E4A93420BD07B68124A934207D07B6849
:1001E000114A934203D07B68104A934204D13B6882
:1001F0001B7A9AB27B681A867B6801229A8214372E
:10020000BD465DF8047B7047002C0140003401407E
:100210000004004000080040000C004000100040B6
:1002200000140040004001400044014000480140EB
:1002300080B485B000AF7860396000237B810023F3
:10024000FB810023BB817B681B8C9BB223F00103E5
:100250009AB27B681A847B681B8CFB817B689B88C5
:10026000BB817B681B8B7B817B8923F070037B8147
:100270007B8923F003037B813B681A887B891343C6
:100280007B81FB8923F00203FB813B681A89FB8990
:100290001343FB813B685A88FB891343FB817B68CE
:1002A000244A93420FD07B68234A93420BD07B6849
:1002B000224A934207D07B68214A934203D07B684D
:1002C000204A934223D1FB8923F00803FB813B683A
:1002D0005A89FB891343FB81FB8923F00403FB81CB
:1002E0003B689A88FB891343FB81BB8923F48073A5
:1002F000BB81BB8923F40073BB813B689A89BB89AE
:100300001343BB813B68DA89BB891343BB817B689C
:10031000BA899A807B687A891A833B68DA887B6815
:100320009A867B68FA891A841437BD465DF8047B87
:10033000704700BF002C01400034014000400140E4
:10034000004401400048014080B485B000AF7860AF
:10035000396000237B810023FB810023BB817B6804
:100360001B8C9BB223F010039AB27B681A847B68C3
:100370001B8CFB817B689B88BB817B681B8B7B8193
:100380007B8923F4E0437B817B8923F440737B8169
:100390003B681B881B029AB27B8913437B81FB89D4
:1003A00023F02003FB813B681B891B019AB2FB8968
:1003B0001343FB813B685B881B019AB2FB891343A3
:1003C000FB817B68224A934203D07B68214A934297
:1003D0002BD1FB8923F08003FB813B685B891B01E8
:1003E0009AB2FB891343FB81FB8923F04003FB8115
:1003F0003B689B881B019AB2FB891343FB81BB8935
:1004000023F48063BB81BB8923F40063BB813B6819
:100410009B899B009AB2BB891343BB813B68DB89F4
:100420009B009AB2BB891343BB817B68BA899A80CF
:100430007B687A891A833B68DA887B681A877B68CD
:10044000FA891A841437BD465DF8047B704700BFF3
:10045000002C01400034014080B485B000AF7860CA
:10046000396000237B810023FB810023BB817B68F3
:100470001B8C9BB223F480739AB27B681A847B68CE
:100480001B8CFB817B689B88BB817B689B8B7B8102
:100490007B8923F070037B817B8923F003037B81BD
:1004A0003B681A887B8913437B81FB8923F40073A3
:1004B000FB813B681B891B029AB2FB891343FB81BA
:1004C0003B685B881B029AB2FB891343FB817B6804
:1004D000224A934203D07B68214A93422BD1FB8965
:1004E00023F40063FB813B685B891B029AB2FB89A2
:1004F0001343FB81FB8923F48063FB813B689B886A
:100500001B029AB2FB891343FB81BB8923F48053FE
:10051000BB81BB8923F40053BB813B689B891B01D2
:100520009AB2BB891343BB813B68DB891B019AB23A
:10053000BB891343BB817B68BA899A807B687A89BF
:100540009A833B68DA887B689A877B68FA891A8481
:100550001437BD465DF8047B704700BF002C014096
:100560000034014080B485B000AF7860396000236A
:10057000BB8100237B810023FB817B681B8C9BB2AA
:1005800023F480539AB27B681A847B681B8C7B812E
:100590007B689B88FB817B689B8BBB81BB8923F439
:1005A000E043BB81BB8923F44073BB813B681B885C
:1005B0001B029AB2BB891343BB817B8923F400538E
:1005C0007B813B681B891B039AB27B8913437B8128
:1005D0003B685B881B039AB27B8913437B817B68F2
:1005E000124A934203D07B68114A93420AD1FB8995
:1005F00023F48043FB813B689B899B019AB2FB8972
:100600001343FB817B68FA899A807B68BA899A8355
:100610003B68DA887B68A3F840207B687A891A8473
:100620001437BD465DF8047B704700BF002C0140C5
:100630000034014080B483B000AF78600B46FB709B
:10064000FB78002B08D07B681B889BB243F001032A
:100650009AB27B681A8007E07B681B889BB223F004
:1006600001039AB27B681A800C37BD465DF8047BA3
:10067000704700BF80B483B000AF78600B46FB705A
:10068000FB78002B08D07B681B889BB243F080036B
:100690009AB27B681A8007E07B681B889BB223F0C4
:1006A00080039AB27B681A800C37BD465DF8047BE4
:1006B000704700BF80B485B000AF78600B467B8088
:1006C0000023FB817B681B8BFB81FB8923F00803E4
:1006D000FB81FA897B881343FB817B68FA891A8343
:1006E0001437BD465DF8047B704700BF80B485B009
:1006F00000AF78600B467B800023FB817B681B8BFF
:10070000FB81FB8923F40063FB817B881B029AB287
:10071000FB891343FB817B68FA891A831437BD4632
:100720005DF8047B704700BF80B485B000AF78608F
:100730000B467B800023FB817B689B8BFB81FB89C5
:1007400023F00803FB81FA897B881343FB817B68D4
:10075000FA899A831437BD465DF8047B704700BF61
:1007600080B485B000AF78600B467B800023FB81AE
:100770007B689B8BFB81FB8923F40063FB817B8877
:100780001B029AB2FB891343FB817B68FA899A8327
:100790001437BD465DF8047B704700BF80B500AFDD
:1007A000164A164B1B6843F0010313601349134BA1
:1007B0005A68134B13404B60104A104B1B6823F0D0
:1007C000847323F4803313600C4A0C4B1B6823F4AE
:1007D00080231360094A094B5B6823F4FE035360CE
:1007E000064B4FF41F029A60044B0022DA6200F0BD
:1007F0000BF8044B4FF000629A6080BD001002407D
:100800000000FFF800ED00E080B500AF00F002F856
:1008100080BD00BF80B483B000AF00237B600023A5
:100820003B60234A224B1B6843F480331360204B08
:100830001B6803F400333B607B6801337B603B68DB
:10084000002B03D17B68B3F5A06FF0D1184B1B6868
:1008500003F40033002B02D001233B6001E00023AE
:100860003B603B68012B1ED1114A114B5B68536002
:100870000F4A0F4B5B6853600D4A0D4B5B6853602A
:100880000B4A0B4B5B6823F003035360084A084B89
:100890005B6843F00103536000BF054B5B6803F0E6
:1008A0000C03042BF9D10C37BD465DF8047B70476F
:1008B0000010024080B489B000AF78603960002336
:1008C000FB6100233B610023BB610023FB6000232D
:1008D0007B610023BB603B68DB7803F00F03FB61A7
:1008E0003B68DB7803F01003002B05D03B689B7856
:1008F0001A46FB691343FB613B681B88DBB2002B84
:1009000044D07B681B687B610023BB6138E0BB6916
:10091000012202FA03F3FB603B681B881A46FB685E
:1009200013403B613A69FB689A4226D1BB699B0040
:10093000FB60FB680F2202FA03F3BB60BB68DB437A
:100940007A6913407B61FB68FA6902FA03F37A69FA
:1009500013437B613B68DB78282B05D1BB690122FF
:100960009A407B685A6108E03B68DB78482B04D1E9
:10097000BB6901229A407B681A61BB690133BB6184
:10098000BB69072BC3D97B687A691A603B681B88EF
:10099000FF2B4AD97B685B687B610023BB613EE02B
:1009A000BB6908331A4601239340FB603B681B88F0
:1009B0001A46FB6813403B613A69FB689A422BD1A7
:1009C000BB699B00FB60FB680F2202FA03F3BB606C
:1009D000BB68DB437A6913407B61FB68FA6902FA02
:1009E00003F37A6913437B613B68DB78282B07D1DB
:1009F000BB6908331A46012303FA02F27B685A6185
:100A00003B68DB78482B07D1BB6908331A460123C2
:100A100003FA02F27B681A61BB690133BB61BB69EF
:100A2000072BBDD97B687A695A602437BD465DF8CB
:100A3000047B704780B487B000AF78600B46FB70D2
:100A400000233B610023FB6000237B610023BB602C
:100A50007B68002B03DA2E4BDB697B6102E02C4BB9
:100A60005B687B617B6803F470231B0CBB607B6855
:100A70009BB23B617B6803F44013B3F5401F0AD17E
:100A80007B6923F070637B61214A214B5B6823F013
:100A90007063536021E07B6803F48013002B0ED059
:100AA000BB68032202FA03F3FB60FB68DB437A694D
:100AB00013407B617B6943F070637B610DE07B6871
:100AC0005B0D1B011A463B699340DB437A69134077
:100AD0007B617B6943F070637B61FB78002B08D0FE
:100AE0007B685B0D1B011A463B6993407A6913438F
:100AF0007B617B68002B03DA054A7B69D36102E0E6
:100B0000034A7B6953601C37BD465DF8047B704720
:100B10000000014080B483B000AF7860044A7B6875
:100B200032F8133018460C37BD465DF8047B704729
:100B30002800002080B582B000AF5D4A5C4BDB68C6
:100B400043F00103D3605B4B1B889BB203F020038F
:100B5000002B00F0A380574800F0FCFC0346FB800C
:100B6000554B1B78032B63D801A252F823F000BF2A
:100B7000810B0008A70B0008D30B0008010C00082C
:100B8000FB889B2B0ED14C4B01221A704B4B1B78D0
:100B90005A1CD1B2494A11701946494AFB8822F8B9
:100BA000113045E044E0FB88B92B0ED1424B0222C4
:100BB0001A70424B1B785A1CD1B2404A1170194628
:100BC0003F4AFB8822F8113032E03B4B00221A707A
:100BD0002EE03A4B1B78032B06D1FB88DAB2394B57
:100BE0001A70354B03221A70344B1B785A1CD1B241
:100BF000324A11701946324AFB8822F8113017E048
:100C00002E4B1B785A1CD1B22C4A117019462C4A13
:100C1000FB8822F81130294B1B781A46294B1B7888
:100C200006339A4203DB244B04221A70FFE700BF0D
:100C3000214B1B78042B31D100BF1E48402100F00E
:100C400099FC0346002BF8D01C4B04221A7017E0C5
:100C50001A4B1B781A461A4B33F8123015481946AE
:100C600000F066FC00BF1348402100F083FC0346FF
:100C7000002BF8D0114B1B780133DAB20F4B1A70EE
:100C80000E4B1B781A460F4B1B7804339A42DFDB5E
:100C90000A4B00221A70084B00221A70044A044BB7
:100CA000DB6883F00103D3600837BD4680BD00BF19
:100CB00000180140003801402E0400202F040020BD
:100CC000280000203004002080B500AF00F096FD21
:100CD00000F00CF800F09CFC00F0DCF980BD00BFD7
:100CE00080B500AF00F01CF9FEE700BF80B582B010
:100CF00000AFFD20012100F0BDFA7D480121FFF782
:100D000099FE7C480121FFF795FE4FF480500121A8
:100D1000FFF790FE78480121FFF78CFE774801210C
:100D2000FFF788FE76480121FFF784FE7548012110
:100D3000FFF780FE08200121FFF77CFE72480121A9
:100D4000FFF778FE4FF4FC43BB801823FB710323AD
:100D5000BB713B1D6D481946FFF7ACFD0F23BB80EF
:100D60001823FB710323BB713B1D69481946FFF72C
:100D7000A1FD4FF47073BB801823FB710323BB717B
:100D80003B1D64481946FFF795FD4FF47043BB8047
:100D90001823FB710323BB713B1D5F481946FFF706
:100DA00089FD4FF20333BB801823FB710323BB7112
:100DB0003B1D5A481946FFF77DFD4FF49853BB8001
:100DC0001823FB710323BB713B1D51481946FFF7E4
:100DD00071FD4FF44063BB800423FB710323BB719F
:100DE0003B1D4B481946FFF765FDB023BB80182318
:100DF000FB710323BB713B1D47481946FFF75AFDA2
:100E00004823BB800423FB710323BB713B1D424875
:100E10001946FFF74FFD4FF4A063BB801823FB7109
:100E20000323BB713B1D3C481946FFF743FD4FF4BC
:100E30002063BB800423FB710323BB713B1D364839
:100E40001946FFF737FD4FF48063BB801823FB7111
:100E50000323BB713B1D2F481946FFF72BFD4FF4B1
:100E60000063BB800423FB710323BB713B1D294836
:100E70001946FFF71FFD4FF48053BB801823FB7109
:100E80000323BB713B1D23481946FFF713FD0423C1
:100E9000BB800423FB710323BB713B1D1E48194615
:100EA000FFF708FDE023BB801823FB710323BB7110
:100EB0003B1D17481946FFF7FDFCC023BB801C23D0
:100EC000FB710323BB713B1D14481946FFF7F2FC6D
:100ED0004FF44063BB801C23FB710323BB713B1D9C
:100EE0000E481946FFF7E6FC0837BD4680BD00BF37
:100EF000C0001600000C1A000010008000010080E5
:100F00000002008001000080300014000018014041
:100F1000000801400010014000140140000C014095
:100F200080B500AFFFF7D0FE00F024F880BD00BF11
:100F300080B582B000AF0420FFF7ECFD78600B4A6B
:100F40007B6896339BB21B019BB29386084A084B81
:100F5000DB6883F48073D360054A054BDB6883F05C
:100F60004003D3600837BD4680BD00BF0008004085
:100F70000010014080B582B000AF8020012100F058
:100F800079F94FF400633B801023FB700323BB709F
:100F90003B4618481946FFF78DFC8020012100F0E0
:100FA00069F903233B801023FB700323BB703B468E
:100FB00011481946FFF77EFC0520012100F05AF97F
:100FC00000237B6000237B6002E07B6801337B6051
:100FD0007B68B3F5801FF8DB064A064BDB6883F4B9
:100FE0000073D360044A044BDB6883F00203D360D0
:100FF000E6E700BF001001400018014080B483B054
:1010000000AF03463960FB7197F90730002B0BDA0C
:101010000D49FB7903F00F03043B3A68D2B2120189
:10102000D2B20B441A7609E0084997F907303A68BA
:10103000D2B21201D2B20B4483F800230C37BD4662
:101040005DF8047B704700BF00ED00E000E100E0C8
:1010500080B582B000AF78607B68B3F1807F01D348
:10106000012311E00A4A7B6823F07F43013B536070
:101070004FF0FF300F21FFF7C1FF054B00229A60B0
:10108000034B07221A60002318460837BD4680BD6F
:1010900010E000E080B500AF00F022F8142000F06E
:1010A00001F880BD80B584B000AF7860FF233B734A
:1010B00001237B730023BB730123FB7307F10C0334
:1010C000184600F039FB054B1A687B68B2FBF3F356
:1010D0001846FFF7BDFF1037BD4680BD0000002059
:1010E00080B582B000AF25233B7100237B710023C4
:1010F000BB710123FB713B1D184600F01DFB04482A
:1011000040F22551012200F0CBF90837BD4680BDE1
:101110000038014080B489B000AF78600023FB61E3
:101120000023BB6100237B6100233B610023FB6044
:101130004A4B5B6803F00C03FB61FB69042B07D08F
:10114000082B09D0002B2FD17B68454A1A602FE06D
:101150007B68444A1A602BE0404B5B6803F47013D1
:10116000BB613E4B5B6803F480337B61BB699B0CC6
:101170000233BB617B69002B06D1BB693A4A02FB93
:1011800003F27B681A6013E0344BDB6A03F00F0351
:101190000133FB60334AFB68B2FBF3F3BA6902FB2D
:1011A00003F27B681A6003E07B682D4A1A6000BF77
:1011B0002A4B5B6803F0F003FB61FB691B09FB61D1
:1011C0002A4AFB6913441B78DBB23B617B681A68CF
:1011D0003B69DA407B685A60204B5B6803F4E0634C
:1011E000FB61FB691B0AFB61204AFB6913441B7806
:1011F000DBB23B617B685A683B69DA407B689A6086
:10120000164B5B6803F46053FB61FB69DB0AFB610F
:10121000164AFB6913441B78DBB23B617B685A6852
:101220003B69DA407B68DA600C4B5B6803F440434F
:10123000FB61FB699B0BFB610D4AFB6913441B7847
:10124000DBB23B617B68DA683B69B2FBF3F27B6837
:101250001A612437BD465DF8047B704700100240D8
:1012600000127A0000366E0100093D0014000020D3
:101270002400002080B483B000AF78600B46FB7080
:10128000FB78002B06D00949084B9A697B68134309
:101290008B6106E00549054B9A697B68DB43134087
:1012A0008B610C37BD465DF8047B7047001002402F
:1012B00080B483B000AF78600B46FB70FB78002BE6
:1012C00006D00949084BDA697B681343CB6106E015
:1012D0000549054BDA697B68DB431340CB610C376A
:1012E000BD465DF8047B70470010024080B58CB0AD
:1012F00000AF786039600023FB620023BB620023EB
:101300007B6200233B620023FB617B68FB617B689F
:101310001B8A9BB2FB62FA6A4CF6FF731340FB62B6
:101320003B68DB881A46FB6A1343FB62FB6A9AB28E
:101330007B681A827B689B899BB2FB62FA6A4EF6D5
:10134000F3131340FB623B689A883B681B89134385
:101350009AB23B685B8913439BB21A46FB6A1343FC
:10136000FB62FB6A9AB27B689A817B689B8A9BB21C
:10137000FB62FA6A4FF6FF431340FB623B689B89AE
:101380001A46FB6A1343FB62FB6A9AB27B689A8235
:1013900007F108031846FFF7BDFEFB692E4A93428A
:1013A00002D17B69BB6201E03B69BB627B689B89C0
:1013B0009BB29BB21BB2002B0CDABA6A13469B009D
:1013C00013449A001A443B681B685B00B2FBF3F3BA
:1013D0007B620BE0BA6A13469B0013449A001A44DE
:1013E0003B681B689B00B2FBF3F37B627B6A1B4A82
:1013F000A2FB03235B091B01FB62FB6A1B0964223E
:1014000002FB03F37A6AD31A3B627B689B899BB227
:101410009BB21BB2002B0CDA3B6ADB0032330F4A63
:10142000A2FB03235B0903F00703FA6A1343FB6281
:101430000BE03B6A1B013233084AA2FB03235B0922
:1014400003F00F03FA6A1343FB62FB6A9AB27B68EC
:101450001A813037BD4680BD003801401F85EB51F1
:1014600080B483B000AF78600B46FB70FB78002B34
:1014700008D07B689B899BB243F400539AB27B6887
:101480009A8107E07B689B899BB223F400539AB250
:101490007B689A810C37BD465DF8047B704700BFBE
:1014A00080B487B000AF78600B467B8013467B70BA
:1014B00000233B610023FB600023BB6000237B61B2
:1014C0007B687B617B88DBB25B09DBB23B617B883D
:1014D00003F01F03FB60FB68012202FA03F3BB6009
:1014E0003B69012B03D17B690C337B6109E03B69CC
:1014F000022B03D17B6910337B6102E07B691433DB
:101500007B617B78002B06D07B697A691168BA68A9
:101510000A431A6006E07B697A691168BA68D243A7
:101520000A401A601C37BD465DF8047B704700BF57
:1015300080B483B000AF78600B467B807B88C3F3B8
:1015400008039AB27B689A800C37BD465DF8047B2D
:10155000704700BF80B483B000AF78607B689B8821
:101560009BB2C3F308039BB218460C37BD465DF827
:10157000047B704780B485B000AF78600B467B80F9
:101580000023FB737B681B889AB27B8813409BB255
:10159000002B02D00123FB7301E00023FB73FB7BD4
:1015A00018461437BD465DF8047B704780B582B09D
:1015B00000AF104B7B60104B3B6007E03B681A1D8F
:1015C0003A607A68111D796012681A603B680B4AAC
:1015D0009342F3D30A480B494FF000028842B8BF48
:1015E00040F8042BFADBFFF7D9F8FFF779FB08374F
:1015F000BD4680BD501800080000002028000020D3
:10160000280000203404002080B400AFFEE700BFB3
:1016100080B588B000AF02200121FFF749FE042009
:101620000121FFF745FE4BF680333B833E4B1B68A1
:101630003E4AA2FB03231B0D9BB2013B9BB2BB8224
:1016400000237B830023FB8207F1140338481946EB
:10165000FEF772FD07F1140336481946FEF76CFDDC
:101660006023BB800123FB804FF461637B810023F7
:10167000BB813B1D2E481946FEF7DAFD2C48082198
:10168000FFF718F83B1D2A481946FEF75DFE28486B
:101690000821FFF72BF83B1D25481946FEF7DCFE15
:1016A00023480821FFF740F83B1D21481946FEF763
:1016B00059FF1F480821FFF753F81D480121FEF785
:1016C000D9FF3B1D1B481946FEF7B2FD19480821FA
:1016D000FEF7F0FF3B1D17481946FEF735FE15488B
:1016E0000821FFF703F83B1D12481946FEF7B4FE28
:1016F00010480821FFF718F83B1D0E481946FEF761
:1017000031FF0C480821FFF72BF80A480121FEF7AA
:10171000B1FF07480121FEF78DFF06480121FEF7C2
:1017200089FF2037BD4680BD00000020851DD96F90
:10173000000400400008004080B487B000AF78602B
:1017400000237B6100233B610F23FB607B68DB7818
:10175000002B3AD0274BDB68DB4303F4E0631B0A22
:101760007B617B69C3F104033B617B69FA6822FA00
:1017700003F3FB607B685B781A463B6902FA03F36C
:101780007B617B689B781A46FB6813407A69134338
:101790007B617B691B017B61174A7B681B787969D8
:1017A000C9B213440A4683F80023134A7B681B78A6
:1017B0005B09DBB218467B681B7803F01F0301212D
:1017C00001FA03F342F820300FE00B497B681B78E5
:1017D0005B09DBB218467B681B7803F01F0301220C
:1017E0009A4000F1200341F823201C37BD465DF8E4
:1017F000047B704700ED00E000E100E080B500AF41
:1018000000F002F880BD00BF80B584B000AF4FF497
:1018100080400121FFF72EFD4DF6C0233B600023E1
:10182000BB800023FB8000233B810023BB810C2372
:101830007B813B4605481946FFF758FD03480121C7
:10184000FFF70EFE1037BD4680BD00BF00380140D7
:1018500000366E01000000000000000001020304D9
:101860000607080900000000010203040102030446
:0818700006070809020406083E
:0400000508000000EF
:00000001FF
