:020000040800F2
:100000001804002049080008A5080008A5080008F1
:10001000A5080008A5080008A508000800000000C1
:10002000000000000000000000000000A50800081B
:10003000A508000800000000A50800081507000832
:10004000A5080008A5080008A5080008A5080008DC
:10005000A5080008A5080008A5080008A5080008CC
:10006000A5080008A5080008A5080008A5080008BC
:10007000A5080008A5080008A5080008A5080008AC
:10008000A5080008A5080008A50800080000000051
:10009000000000000000000000000000A5080008AB
:1000A000A5080008A5080008A5080008A50800087C
:1000B000A5080008A5080008A5080008A50800086C
:1000C000A5080008A5080008A5080008A50800085C
:1000D000A5080008A5080008A5080008A50800084C
:1000E000A5080008A5080008A5080008A50800083C
:1000F000A5080008A5080008000000000000000096
:10010000A508000800000000A5080008A5080008D0
:10011000A5080008A5080008A5080008A50800080B
:10012000A5080008A5080008A5080008A5080008FB
:10013000A50800085FF808F180B500AF164A164B15
:100140001B6843F0010313601349134B5A68134BA8
:1001500013404B60104A104B1B6823F0847323F448
:10016000803313600C4A0C4B1B6823F4802313600C
:10017000094A094B5B6823F4FE035360064B4FF4B6
:100180001F029A60044B0022DA6200F00BF8044B65
:100190004FF000629A6080BD001002400000FFF83E
:1001A00000ED00E080B500AF00F002F880BD00BFB8
:1001B00080B483B000AF00237B6000233B60234A00
:1001C000224B1B6843F480331360204B1B6803F4FD
:1001D00000333B607B6801337B603B68002B03D1BD
:1001E0007B68B3F5A06FF0D1184B1B6803F40033A4
:1001F000002B02D001233B6001E000233B603B6801
:10020000012B1ED1114A114B5B6853600F4A0F4BF3
:100210005B6853600D4A0D4B5B6853600B4A0B4B98
:100220005B6823F003035360084A084B5B6843F0A4
:100230000103536000BF054B5B6803F00C03042B04
:10024000F9D10C37BD465DF8047B704700100240C1
:1002500080B489B000AF786039600023FB6100236F
:100260003B610023BB610023FB6000237B61002313
:10027000BB603B68DB7803F00F03FB613B68DB7816
:1002800003F01003002B05D03B689B781A46FB69EE
:100290001343FB613B681B88DBB2002B44D07B68B7
:1002A0001B687B610023BB6138E0BB69012202FA55
:1002B00003F3FB603B681B881A46FB6813403B61F5
:1002C0003A69FB689A4226D1BB699B00FB60FB68D8
:1002D0000F2202FA03F3BB60BB68DB437A69134069
:1002E0007B61FB68FA6902FA03F37A6913437B6165
:1002F0003B68DB78282B05D1BB6901229A407B68DB
:100300005A6108E03B68DB78482B04D1BB690122C5
:100310009A407B681A61BB690133BB61BB69072BDB
:10032000C3D97B687A691A603B681B88FF2B4AD95E
:100330007B685B687B610023BB613EE0BB6908337F
:100340001A4601239340FB603B681B881A46FB68F2
:1003500013403B613A69FB689A422BD1BB699B0011
:10036000FB60FB680F2202FA03F3BB60BB68DB4350
:100370007A6913407B61FB68FA6902FA03F37A69D0
:1003800013437B613B68DB78282B07D1BB690833BB
:100390001A46012303FA02F27B685A613B68DB7854
:1003A000482B07D1BB6908331A46012303FA02F22E
:1003B0007B681A61BB690133BB61BB69072BBDD97F
:1003C0007B687A695A602437BD465DF8047B7047C4
:1003D00080B487B000AF78600B46FB7000233B61B0
:1003E0000023FB6000237B610023BB607B68002B44
:1003F00003DA2E4BDB697B6102E02C4B5B687B618F
:100400007B6803F470231B0CBB607B689BB23B6171
:100410007B6803F44013B3F5401F0AD17B6923F0D6
:1004200070637B61214A214B5B6823F070635360EA
:1004300021E07B6803F48013002B0ED0BB680322FD
:1004400002FA03F3FB60FB68DB437A6913407B61CC
:100450007B6943F070637B610DE07B685B0D1B0182
:100460001A463B699340DB437A6913407B617B69A1
:1004700043F070637B61FB78002B08D07B685B0DD9
:100480001B011A463B6993407A6913437B617B6881
:10049000002B03DA054A7B69D36102E0034A7B69DA
:1004A00053601C37BD465DF8047B70470000014077
:1004B00080B500AF00F00CF800F05AFA00F082F9B5
:1004C00080BD00BF80B500AF00F01CF9FEE700BFA3
:1004D00080B582B000AFFD20012100F097F97D4882
:1004E0000121FFF775FF7C480121FFF771FF4FF4F1
:1004F00080500121FFF76CFF78480121FFF768FF6A
:1005000077480121FFF764FF76480121FFF760FF7C
:1005100075480121FFF75CFF08200121FFF758FF14
:1005200072480121FFF754FF4FF4FC43BB801823AE
:10053000FB710323BB713B1D6D481946FFF788FE15
:100540000F23BB801823FB710323BB713B1D69483C
:100550001946FFF77DFE4FF47073BB801823FB71C3
:100560000323BB713B1D64481946FFF771FE4FF42E
:100570007043BB801823FB710323BB713B1D5F4895
:100580001946FFF765FE4FF20333BB801823FB715A
:100590000323BB713B1D5A481946FFF759FE4FF420
:1005A0009853BB801823FB710323BB713B1D51483B
:1005B0001946FFF74DFE4FF44063BB800423FB71E7
:1005C0000323BB713B1D4B481946FFF741FEB02387
:1005D000BB801823FB710323BB713B1D47481946A1
:1005E000FFF736FE4823BB800423FB710323BB7156
:1005F0003B1D42481946FFF72BFE4FF4A063BB801A
:100600001823FB710323BB713B1D3C481946FFF7C0
:100610001FFE4FF42063BB800423FB710323BB71D7
:100620003B1D36481946FFF713FE4FF48063BB802D
:100630001823FB710323BB713B1D2F481946FFF79D
:1006400007FE4FF40063BB800423FB710323BB71DF
:100650003B1D29481946FFF7FBFD4FF48053BB8033
:100660001823FB710323BB713B1D23481946FFF779
:10067000EFFD0423BB800423FB710323BB713B1DEF
:100680001E481946FFF7E4FDE023BB801823FB71E9
:100690000323BB713B1D17481946FFF7D9FDC02343
:1006A000BB801C23FB710323BB713B1D14481946FF
:1006B000FFF7CEFD4FF44063BB801C23FB71032387
:1006C000BB713B1D0E481946FFF7C2FD0837BD46FA
:1006D00080BD00BFC0001600000C1A000010008092
:1006E0000001008000020080010000803000140042
:1006F00000180140000801400010014000140140B2
:10070000000C014080B500AFFFF7D2FE00F008F802
:1007100080BD00BF80B400AFBD465DF8047B70476C
:1007200080B400AFBD465DF8047B704780B483B0F1
:1007300000AF03463960FB7197F90730002B0BDAE5
:100740000D49FB7903F00F03043B3A68D2B2120162
:10075000D2B20B441A7609E0084997F907303A6893
:10076000D2B21201D2B20B4483F800230C37BD463B
:100770005DF8047B704700BF00ED00E000E100E0A1
:1007800080B582B000AF78607B68B3F1807F01D321
:10079000012311E00A4A7B6823F07F43013B536049
:1007A0004FF0FF300F21FFF7C1FF054B00229A6089
:1007B000034B07221A60002318460837BD4680BD48
:1007C00010E000E080B500AF142000F001F880BD1B
:1007D00080B584B000AF7860FF233B7300237B7348
:1007E0000023BB7301233B7307F10C03184600F091
:1007F0005DF8054B1A687B68B2FBF3F31846FFF708
:10080000BFFF1037BD4680BD0000002080B483B01C
:1008100000AF78600B46FB70FB78002B06D00949CF
:10082000084B9A697B6813438B6106E00549054BC9
:100830009A697B68DB4313408B610C37BD465DF8DA
:10084000047B70470010024080B582B000AF104BAF
:100850007B60104B3B6007E03B681A1D3A607A688A
:10086000111D796012681A603B680B4A9342F3D3FA
:100870000A480B494FF000028842B8BF40F8042BE9
:10088000FADBFFF759FCFFF71DFE0837BD4680BDB8
:100890007C09000800000020140000201400002043
:1008A0001400002080B400AFFEE700BF80B487B022
:1008B00000AF786000237B6100233B610F23FB6066
:1008C0007B68DB78002B3AD0274BDB68DB4303F4F3
:1008D000E0631B0A7B617B69C3F104033B617B69B5
:1008E000FA6822FA03F3FB607B685B781A463B697F
:1008F00002FA03F37B617B689B781A46FB6813401E
:100900007A6913437B617B691B017B61174A7B68B2
:100910001B787969C9B213440A4683F80023134A45
:100920007B681B785B09DBB218467B681B7803F099
:100930001F03012101FA03F342F820300FE00B49B5
:100940007B681B785B09DBB218467B681B7803F079
:100950001F0301229A4000F1200341F823201C3795
:10096000BD465DF8047B704700ED00E000E100E06B
:0C09700080B400AFBD465DF8047B70470A
:10097C0000366E01000000000000000001020304BC
:04098C000607080949
:0400000508000000EF
:00000001FF
