:020000040800F2
:10000000400700206D170008C9170008C91700082D
:10001000C9170008C9170008C91700080000000028
:10002000000000000000000000000000C9170008E8
:10003000C917000800000000C91700087510000863
:10004000C9170008C9170008C9170008C917000810
:10005000C9170008C9170008C9170008C917000800
:10006000C9170008C9170008C9170008C9170008F0
:10007000C9170008C9170008C9170008C9170008E0
:10008000C9170008C9170008C917000800000000B8
:10009000000000000000000000000000C917000878
:1000A000C9170008C9170008C9170008C9170008B0
:1000B000C9170008C9170008C9170008C9170008A0
:1000C000C9170008C9170008C9170008C917000890
:1000D000C9170008550B0008C9170008C917000800
:1000E000C9170008C9170008C9170008C917000870
:1000F000C9170008C9170008000000000000000030
:10010000C917000800000000C9170008C917000837
:10011000C9170008C9170008C9170008F90D000819
:10012000C9170008C9170008C9170008C91700082F
:10013000C91700085FF808F180B485B000AF786097
:1001400039600023FB817B681B88FB817B682E4A1A
:10015000934213D07B682D4A93420FD07B68B3F152
:10016000804F0BD07B682A4A934207D07B68294A8C
:10017000934203D07B68284A934208D1FB8923F03D
:100180007003FB813B685A88FB891343FB817B68C2
:10019000224A93420CD07B68214A934208D0FB89C3
:1001A00023F44073FB813B68DA88FB891343FB81AE
:1001B0007B68FA891A803B689A887B689A853B68D5
:1001C0001A887B681A857B680F4A93420FD07B6838
:1001D0000E4A93420BD07B68124A934207D07B6849
:1001E000114A934203D07B68104A934204D13B6882
:1001F0001B7A9AB27B681A867B6801229A8214372E
:10020000BD465DF8047B7047002C0140003401407E
:100210000004004000080040000C004000100040B6
:1002200000140040004001400044014000480140EB
:1002300080B485B000AF7860396000237B810023F3
:10024000FB810023BB817B681B8C9BB223F00103E5
:100250009AB27B681A847B681B8CFB817B689B88C5
:10026000BB817B681B8B7B817B8923F070037B8147
:100270007B8923F003037B813B681A887B891343C6
:100280007B81FB8923F00203FB813B681A89FB8990
:100290001343FB813B685A88FB891343FB817B68CE
:1002A000244A93420FD07B68234A93420BD07B6849
:1002B000224A934207D07B68214A934203D07B684D
:1002C000204A934223D1FB8923F00803FB813B683A
:1002D0005A89FB891343FB81FB8923F00403FB81CB
:1002E0003B689A88FB891343FB81BB8923F48073A5
:1002F000BB81BB8923F40073BB813B689A89BB89AE
:100300001343BB813B68DA89BB891343BB817B689C
:10031000BA899A807B687A891A833B68DA887B6815
:100320009A867B68FA891A841437BD465DF8047B87
:10033000704700BF002C01400034014000400140E4
:10034000004401400048014080B485B000AF7860AF
:10035000396000237B810023FB810023BB817B6804
:100360001B8C9BB223F010039AB27B681A847B68C3
:100370001B8CFB817B689B88BB817B681B8B7B8193
:100380007B8923F4E0437B817B8923F440737B8169
:100390003B681B881B029AB27B8913437B81FB89D4
:1003A00023F02003FB813B681B891B019AB2FB8968
:1003B0001343FB813B685B881B019AB2FB891343A3
:1003C000FB817B68224A934203D07B68214A934297
:1003D0002BD1FB8923F08003FB813B685B891B01E8
:1003E0009AB2FB891343FB81FB8923F04003FB8115
:1003F0003B689B881B019AB2FB891343FB81BB8935
:1004000023F48063BB81BB8923F40063BB813B6819
:100410009B899B009AB2BB891343BB813B68DB89F4
:100420009B009AB2BB891343BB817B68BA899A80CF
:100430007B687A891A833B68DA887B681A877B68CD
:10044000FA891A841437BD465DF8047B704700BFF3
:10045000002C01400034014080B485B000AF7860CA
:10046000396000237B810023FB810023BB817B68F3
:100470001B8C9BB223F480739AB27B681A847B68CE
:100480001B8CFB817B689B88BB817B689B8B7B8102
:100490007B8923F070037B817B8923F003037B81BD
:1004A0003B681A887B8913437B81FB8923F40073A3
:1004B000FB813B681B891B029AB2FB891343FB81BA
:1004C0003B685B881B029AB2FB891343FB817B6804
:1004D000224A934203D07B68214A93422BD1FB8965
:1004E00023F40063FB813B685B891B029AB2FB89A2
:1004F0001343FB81FB8923F48063FB813B689B886A
:100500001B029AB2FB891343FB81BB8923F48053FE
:10051000BB81BB8923F40053BB813B689B891B01D2
:100520009AB2BB891343BB813B68DB891B019AB23A
:10053000BB891343BB817B68BA899A807B687A89BF
:100540009A833B68DA887B689A877B68FA891A8481
:100550001437BD465DF8047B704700BF002C014096
:100560000034014080B485B000AF7860396000236A
:10057000BB8100237B810023FB817B681B8C9BB2AA
:1005800023F480539AB27B681A847B681B8C7B812E
:100590007B689B88FB817B689B8BBB81BB8923F439
:1005A000E043BB81BB8923F44073BB813B681B885C
:1005B0001B029AB2BB891343BB817B8923F400538E
:1005C0007B813B681B891B039AB27B8913437B8128
:1005D0003B685B881B039AB27B8913437B817B68F2
:1005E000124A934203D07B68114A93420AD1FB8995
:1005F00023F48043FB813B689B899B019AB2FB8972
:100600001343FB817B68FA899A807B68BA899A8355
:100610003B68DA887B68A3F840207B687A891A8473
:100620001437BD465DF8047B704700BF002C0140C5
:100630000034014080B483B000AF78600B46FB709B
:10064000FB78002B08D07B681B889BB243F001032A
:100650009AB27B681A8007E07B681B889BB223F004
:1006600001039AB27B681A800C37BD465DF8047BA3
:10067000704700BF80B483B000AF78600B46FB705A
:10068000FB78002B08D07B681B889BB243F080036B
:100690009AB27B681A8007E07B681B889BB223F0C4
:1006A00080039AB27B681A800C37BD465DF8047BE4
:1006B000704700BF80B485B000AF78600B467B8088
:1006C0000023FB817B681B8BFB81FB8923F00803E4
:1006D000FB81FA897B881343FB817B68FA891A8343
:1006E0001437BD465DF8047B704700BF80B485B009
:1006F00000AF78600B467B800023FB817B681B8BFF
:10070000FB81FB8923F40063FB817B881B029AB287
:10071000FB891343FB817B68FA891A831437BD4632
:100720005DF8047B704700BF80B485B000AF78608F
:100730000B467B800023FB817B689B8BFB81FB89C5
:1007400023F00803FB81FA897B881343FB817B68D4
:10075000FA899A831437BD465DF8047B704700BF61
:1007600080B485B000AF78600B467B800023FB81AE
:100770007B689B8BFB81FB8923F40063FB817B8877
:100780001B029AB2FB891343FB817B68FA899A8327
:100790001437BD465DF8047B704700BF80B483B05A
:1007A00000AF78600B467B807B88DB439AB27B6826
:1007B0001A820C37BD465DF8047B704780B500AFE8
:1007C000164A164B1B6843F0010313601349134B81
:1007D0005A68134B13404B60104A104B1B6823F0B0
:1007E000847323F4803313600C4A0C4B1B6823F48E
:1007F00080231360094A094B5B6823F4FE035360AE
:10080000064B4FF41F029A60044B0022DA6200F09C
:100810000BF8044B4FF000629A6080BD001002405C
:100820000000FFF800ED00E080B500AF00F002F836
:1008300080BD00BF80B483B000AF00237B60002385
:100840003B60234A224B1B6843F480331360204BE8
:100850001B6803F400333B607B6801337B603B68BB
:10086000002B03D17B68B3F5A06FF0D1184B1B6848
:1008700003F40033002B02D001233B6001E000238E
:100880003B603B68012B1ED1114A114B5B685360E2
:100890000F4A0F4B5B6853600D4A0D4B5B6853600A
:1008A0000B4A0B4B5B6823F003035360084A084B69
:1008B0005B6843F00103536000BF054B5B6803F0C6
:1008C0000C03042BF9D10C37BD465DF8047B70474F
:1008D0000010024080B489B000AF78603960002316
:1008E000FB6100233B610023BB610023FB6000230D
:1008F0007B610023BB603B68DB7803F00F03FB6187
:100900003B68DB7803F01003002B05D03B689B7835
:100910001A46FB691343FB613B681B88DBB2002B63
:1009200044D07B681B687B610023BB6138E0BB69F6
:10093000012202FA03F3FB603B681B881A46FB683E
:1009400013403B613A69FB689A4226D1BB699B0020
:10095000FB60FB680F2202FA03F3BB60BB68DB435A
:100960007A6913407B61FB68FA6902FA03F37A69DA
:1009700013437B613B68DB78282B05D1BB690122DF
:100980009A407B685A6108E03B68DB78482B04D1C9
:10099000BB6901229A407B681A61BB690133BB6164
:1009A000BB69072BC3D97B687A691A603B681B88CF
:1009B000FF2B4AD97B685B687B610023BB613EE00B
:1009C000BB6908331A4601239340FB603B681B88D0
:1009D0001A46FB6813403B613A69FB689A422BD187
:1009E000BB699B00FB60FB680F2202FA03F3BB604C
:1009F000BB68DB437A6913407B61FB68FA6902FAE2
:100A000003F37A6913437B613B68DB78282B07D1BA
:100A1000BB6908331A46012303FA02F27B685A6164
:100A20003B68DB78482B07D1BB6908331A460123A2
:100A300003FA02F27B681A61BB690133BB61BB69CF
:100A4000072BBDD97B687A695A602437BD465DF8AB
:100A5000047B704780B487B000AF78600B46FB70B2
:100A600000233B610023FB6000237B610023BB600C
:100A70007B68002B03DA2E4BDB697B6102E02C4B99
:100A80005B687B617B6803F470231B0CBB607B6835
:100A90009BB23B617B6803F44013B3F5401F0AD15E
:100AA0007B6923F070637B61214A214B5B6823F0F3
:100AB0007063536021E07B6803F48013002B0ED039
:100AC000BB68032202FA03F3FB60FB68DB437A692D
:100AD00013407B617B6943F070637B610DE07B6851
:100AE0005B0D1B011A463B699340DB437A69134057
:100AF0007B617B6943F070637B61FB78002B08D0DE
:100B00007B685B0D1B011A463B6993407A6913436E
:100B10007B617B68002B03DA054A7B69D36102E0C5
:100B2000034A7B6953601C37BD465DF8047B704700
:100B30000000014080B483B000AF7860044A7B6855
:100B400013441B7818460C37BD465DF8047B70478C
:100B50002C00002080B582B000AF5F4A5E4BDB689E
:100B600043F00103D3605D4B1B889BB203F020036D
:100B7000002B00F0A880594800F0CCFD0346FB8014
:100B8000574B1B78032B66D801A252F823F000BF05
:100B9000A10B0008C70B0008F90B0008270C000880
:100BA000FB889B2B0ED14E4B01221A704D4B1B78AC
:100BB0005A1CD1B24B4A11701A46FB88D9B24A4B23
:100BC000995448E047E0FB88B92B0ED1444B0222F0
:100BD0001A70444B1B785A1CD1B2424A11701A4603
:100BE000FB88D9B2404B995435E03D4B00221A7036
:100BF0003C4B00221A702EE03A4B1B78032B06D197
:100C0000FB88DAB2394B1A70354B03221A70354B18
:100C10001B785A1CD1B2334A11701A46FB88D9B2DC
:100C2000314B995417E02F4B1B785A1CD1B22D4AE7
:100C300011701A46FB88D9B22B4B9954294B1B785B
:100C40001A462A4B1B7806339A4203DB244B0422B4
:100C50001A70FFE700BF224B1B78042B33D100F042
:100C600047F800BF1D48402100F064FD0346002BFB
:100C7000F8D01C4B04221A7017E01A4B1B781A4646
:100C8000194B9B5C9BB21548194600F031FD00BF23
:100C90001248402100F04EFD0346002BF8D0114BC6
:100CA0001B780133DAB20F4B1A700E4B1B781A46C1
:100CB0000E4B1B7804339A42DFDB0A4B00221A707A
:100CC000074B00221A70044A034BDB6883F00103D0
:100CD000D3600837BD4680BD001801400038014090
:100CE00032020020330200202C00002034020020B9
:100CF000B0B582B002AF3F4B9B78013B0F2B77D84A
:100D000001A252F823F000BF490D0008F10D0008C0
:100D1000F10D0008F10D0008F10D0008F10D0008BB
:100D2000F10D0008610D0008F10D0008F10D00083B
:100D3000F10D0008F10D0008F10D0008F10D00089B
:100D4000F10D0008B70D00082A4BDB78022B03D009
:100D5000032B03D0012B02E000BF49E000BF47E0B6
:100D6000244BDB78113B062B3FD801A252F823F02D
:100D70008D0D0008EB0D0008B30D0008EB0D000809
:100D8000B30D0008EB0D0008B30D0008194B58799E
:100D9000184B9979174BDD79164B1C7A154B5A7AFB
:100DA000144B9B7A009201932A46234600F010FDD3
:100DB00000E000BF19E00F4BDB78113B062B16D883
:100DC00001A252F823F000BFE50D0008EF0D000866
:100DD000E50D0008EF0D0008E50D0008EF0D000817
:100DE000E50D000800BF00BF01E000BF00E000BF4C
:100DF000BD46B0BD2C00002080B500AF02480121E7
:100E0000FFF7CCFC80BD00BF0014004080B500AFF0
:100E100000F0FEFF00F00CF800F0E0FE00F01AFA1F
:100E200080BD00BF80B500AF00F01CF9FEE700BF39
:100E300080B582B000AFFD20012100F0FBFA7D48B3
:100E40000121FFF707FE7C480121FFF703FE4FF465
:100E500080500121FFF7FEFD78480121FFF7FAFDE0
:100E600077480121FFF7F6FD76480121FFF7F2FDF3
:100E700075480121FFF7EEFD08200121FFF7EAFD8B
:100E800072480121FFF7E6FD4FF4FC43BB801823B5
:100E9000FB710323BB713B1D6D481946FFF71AFD1B
:100EA0000F23BB801823FB710323BB713B1D6948D3
:100EB0001946FFF70FFD4FF47073BB801823FB71C9
:100EC0000323BB713B1D64481946FFF703FD4FF434
:100ED0007043BB801823FB710323BB713B1D5F482C
:100EE0001946FFF7F7FC4FF20333BB801823FB7161
:100EF0000323BB713B1D5A481946FFF7EBFC4FF427
:100F00009853BB801823FB710323BB713B1D5148D1
:100F10001946FFF7DFFC4FF44063BB800423FB71ED
:100F20000323BB713B1D4B481946FFF7D3FCB0238D
:100F3000BB801823FB710323BB713B1D4748194637
:100F4000FFF7C8FC4823BB800423FB710323BB715C
:100F50003B1D42481946FFF7BDFC4FF4A063BB8020
:100F60001823FB710323BB713B1D3C481946FFF757
:100F7000B1FC4FF42063BB800423FB710323BB71DE
:100F80003B1D36481946FFF7A5FC4FF48063BB8034
:100F90001823FB710323BB713B1D2F481946FFF734
:100FA00099FC4FF40063BB800423FB710323BB71E6
:100FB0003B1D29481946FFF78DFC4FF48053BB8039
:100FC0001823FB710323BB713B1D23481946FFF710
:100FD00081FC0423BB800423FB710323BB713B1DF5
:100FE0001E481946FFF776FCE023BB801823FB71EF
:100FF0000323BB713B1D17481946FFF76BFCC02349
:10100000BB801C23FB710323BB713B1D1448194695
:10101000FFF760FC4FF44063BB801C23FB7103238C
:10102000BB713B1D0E481946FFF754FC0837BD46FF
:1010300080BD00BFC0001600000C1A000010008028
:1010400000010080000200800100008030001400D8
:101050000018014000080140001001400014014048
:10106000000C014080B500AFFFF7D0FE00F026F87D
:1010700080BD00BF80B582B000AF0420FFF75AFDED
:1010800078600C4A7B6896339BB21B019BB29386B7
:10109000094A094BDB6883F48073D360064A064B28
:1010A000DB6883F04003D36000F0BAFB0837BD462D
:1010B00080BD00BF000800400010014080B582B034
:1010C00000AF8020012100F0B5F94FF400633B80B0
:1010D0001023FB700323BB703B4618481946FFF7EB
:1010E000F9FB8020012100F0A5F903233B801023A8
:1010F000FB700323BB703B4611481946FFF7EAFB20
:101100000520012100F096F900237B6000237B601D
:1011100002E07B6801337B607B68B3F5801FF8DBFE
:10112000064A064BDB6883F40073D360044A044B21
:10113000DB6883F00203D360E6E700BF00100140E4
:101140000018014080B483B000AF78607B681B0258
:1011500018460C37BD465DF8047B704780B483B0F9
:1011600000AF78607B6880337B607B681B12184619
:101170000C37BD465DF8047B704700BF80B483B078
:1011800000AF786039607B683A6802FB03F31B129A
:1011900018460C37BD465DF8047B704780B483B0B9
:1011A00000AF786039607B681A023B6892FBF3F30A
:1011B00018460C37BD465DF8047B704780B483B099
:1011C00000AF03463960FB7197F90730002B0BDA4B
:1011D0000D49FB7903F00F03043B3A68D2B21201C8
:1011E000D2B20B441A7609E0084997F907303A68F9
:1011F000D2B21201D2B20B4483F800230C37BD46A1
:101200005DF8047B704700BF00ED00E000E100E006
:1012100080B582B000AF78607B68B3F1807F01D386
:10122000012311E00A4A7B6823F07F43013B5360AE
:101230004FF0FF300F21FFF7C1FF054B00229A60EE
:10124000034B07221A60002318460837BD4680BDAD
:1012500010E000E080B500AF00F022F8142000F0AC
:1012600001F880BD80B584B000AF7860FF233B7388
:1012700001237B730423BB730123FB7307F10C036E
:10128000184600F063FD054B1A687B68B2FBF3F368
:101290001846FFF7BDFF1037BD4680BD0000002097
:1012A00080B582B000AF25233B7101237B710223FF
:1012B000BB710123FB713B1D184600F047FD04483C
:1012C00040F22551012200F0CBF90837BD4680BD20
:1012D0000038014080B489B000AF78600023FB6122
:1012E0000023BB6100237B6100233B610023FB6083
:1012F0004A4B5B6803F00C03FB61FB69042B07D0CE
:10130000082B09D0002B2FD17B68454A1A602FE0AB
:101310007B68444A1A602BE0404B5B6803F470130F
:10132000BB613E4B5B6803F480337B61BB699B0C04
:101330000233BB617B69002B06D1BB693A4A02FBD1
:1013400003F27B681A6013E0344BDB6A03F00F038F
:101350000133FB60334AFB68B2FBF3F3BA6902FB6B
:1013600003F27B681A6003E07B682D4A1A6000BFB5
:101370002A4B5B6803F0F003FB61FB691B09FB610F
:101380002A4AFB6913441B78DBB23B617B681A680D
:101390003B69DA407B685A60204B5B6803F4E0638A
:1013A000FB61FB691B0AFB61204AFB6913441B7844
:1013B000DBB23B617B685A683B69DA407B689A60C4
:1013C000164B5B6803F46053FB61FB69DB0AFB614E
:1013D000164AFB6913441B78DBB23B617B685A6891
:1013E0003B69DA407B68DA600C4B5B6803F440438E
:1013F000FB61FB699B0BFB610D4AFB6913441B7886
:10140000DBB23B617B68DA683B69B2FBF3F27B6875
:101410001A612437BD465DF8047B70470010024016
:1014200000127A0000366E0100093D001400002011
:101430002400002080B483B000AF78600B46FB70BE
:10144000FB78002B06D00949084B9A697B68134347
:101450008B6106E00549054B9A697B68DB431340C5
:101460008B610C37BD465DF8047B7047001002406D
:1014700080B483B000AF78600B46FB70FB78002B24
:1014800006D00949084BDA697B681343CB6106E053
:101490000549054BDA697B68DB431340CB610C37A8
:1014A000BD465DF8047B70470010024080B58CB0EB
:1014B00000AF786039600023FB620023BB62002329
:1014C0007B6200233B620023FB617B68FB617B68DE
:1014D0001B8A9BB2FB62FA6A4CF6FF731340FB62F5
:1014E0003B68DB881A46FB6A1343FB62FB6A9AB2CD
:1014F0007B681A827B689B899BB2FB62FA6A4EF614
:10150000F3131340FB623B689A883B681B891343C3
:101510009AB23B685B8913439BB21A46FB6A13433A
:10152000FB62FB6A9AB27B689A817B689B8A9BB25A
:10153000FB62FA6A4FF6FF431340FB623B689B89EC
:101540001A46FB6A1343FB62FB6A9AB27B689A8273
:1015500007F108031846FFF7BDFEFB692E4A9342C8
:1015600002D17B69BB6201E03B69BB627B689B89FE
:101570009BB29BB21BB2002B0CDABA6A13469B00DB
:1015800013449A001A443B681B685B00B2FBF3F3F8
:101590007B620BE0BA6A13469B0013449A001A441C
:1015A0003B681B689B00B2FBF3F37B627B6A1B4AC0
:1015B000A2FB03235B091B01FB62FB6A1B0964227C
:1015C00002FB03F37A6AD31A3B627B689B899BB266
:1015D0009BB21BB2002B0CDA3B6ADB0032330F4AA2
:1015E000A2FB03235B0903F00703FA6A1343FB62C0
:1015F0000BE03B6A1B013233084AA2FB03235B0961
:1016000003F00F03FA6A1343FB62FB6A9AB27B682A
:101610001A813037BD4680BD003801401F85EB512F
:1016200080B483B000AF78600B46FB70FB78002B72
:1016300008D07B689B899BB243F400539AB27B68C5
:101640009A8107E07B689B899BB223F400539AB28E
:101650007B689A810C37BD465DF8047B704700BFFC
:1016600080B487B000AF78600B467B8013467B70F8
:1016700000233B610023FB600023BB6000237B61F0
:101680007B687B617B88DBB25B09DBB23B617B887B
:1016900003F01F03FB60FB68012202FA03F3BB6047
:1016A0003B69012B03D17B690C337B6109E03B690A
:1016B000022B03D17B6910337B6102E07B69143319
:1016C0007B617B78002B06D07B697A691168BA68E8
:1016D0000A431A6006E07B697A691168BA68D243E6
:1016E0000A401A601C37BD465DF8047B704700BF96
:1016F00080B483B000AF78600B467B807B88C3F3F7
:1017000008039AB27B689A800C37BD465DF8047B6B
:10171000704700BF80B483B000AF78607B689B885F
:101720009BB2C3F308039BB218460C37BD465DF865
:10173000047B704780B485B000AF78600B467B8037
:101740000023FB737B681B889AB27B8813409BB293
:10175000002B02D00123FB7301E00023FB73FB7B12
:1017600018461437BD465DF8047B704780B582B0DB
:1017700000AF104B7B60104B3B6007E03B681A1DCD
:101780003A607A68111D796012681A603B680B4AEA
:101790009342F3D30A480B494FF000028842B8BF86
:1017A00040F8042BFADBFFF709F8FFF73BFB08379B
:1017B000BD4680BD641E0008000000202C000020F3
:1017C0002C0000203C03002080B400AFFEE700BFE7
:1017D00090B482B000AF0446084611461A4623462C
:1017E000FB710346BB710B467B7113463B710B4A81
:1017F000FB791370094ABB795370084A7B7993705F
:10180000064A3B79D370054A3B7C1371034A3B7D02
:1018100053710837BD4690BC704700BF18030020C5
:10182000B0B588B000AF0023FB770023BB7700235F
:10183000FB770AE097F91F30994A002142F82310FC
:10184000FB7FDBB20133DBB2FB7797F91F30072B4D
:10185000F0DD0023FB773EE097F91F30914AD35C1F
:10186000803BDBB2FB7400233B828F4B1B785BB267
:10187000002B1FD0012B29D197F913309BB297F978
:10188000132092B202FB03F33B8297F91330002B33
:1018900009DA97F91F303A8A524292B291B2834ADA
:1018A00022F8131012E097F91F3080493A8A21F884
:1018B00013200BE097F91F3097F9132092B2D20151
:1018C00092B291B2794A22F8131000BFFB7FDBB2CB
:1018D0000133DBB2FB7797F91F30052BBCDD00230A
:1018E000FB770023BB770023FB7735E097F91F30A8
:1018F0006B4A002142F823100023BB7723E097F9BD
:101900001F1097F91F30664A52F8230097F91F20DD
:1019100097F91E40664D13465B0013445B00234459
:1019200055F8233097F91E20604C34F8122012B27B
:1019300002FB03F303445A4A42F82130BB7FDBB277
:101940000133DBB2BB7797F91E30052BD7DDFB7F68
:10195000DBB20133DBB2FB7797F91F30072BC5DD14
:101960004FF48073BB614FF480737B610023FB777E
:101970008EE097F91F204E4913465B001344DB00AD
:101980000B441B68002B17D197F91F2048491346B9
:101990005B001344DB000B4404331B68002B0BD1AA
:1019A00097F91F20424913465B001344DB000B44A8
:1019B0000C331B68002B20D097F91F303D4A32F8BA
:1019C00013301BB21846FFF7BDFB044697F91F30D2
:1019D000334A52F82330002BB8BF5B421846FFF75A
:1019E000B1FB034620461946FFF7D8FBF860FA68BA
:1019F000BB699A4201DAFB68BB6197F91F202C4949
:101A000013465B001344DB000B4408331B68002BB8
:101A100017D197F91F20264913465B001344DB00BA
:101A20000B4410331B68002B0BD197F91F20204962
:101A300013465B001344DB000B4414331B68002B7C
:101A400021D097F91F30164A52F82330002BB8BF27
:101A50005B42BB6097F91F30164A32F813301BB255
:101A60001846FFF76FFB0446B868FFF76BFB0346A9
:101A700020461946FFF792FB78607A687B699A42A4
:101A800001DA7B687B61FB7FDBB20133DBB2FB7782
:101A900097F91F30072B7FF76CAF0023FB7791E09E
:101AA000F802002018030020280000203003002046
:101AB0003802002020030020B869FFF74FFB0346DF
:101AC000002B39DC97F91F20424913465B00134471
:101AD000DB000B441B68002B17D197F91F203D49F1
:101AE00013465B001344DB000B4404331B68002BDC
:101AF0000BD197F91F20374913465B001344DB00D5
:101B00000B440C331B68002B16D097F91F4097F934
:101B10001F30314A52F823301846FFF713FB0346B3
:101B20001846B969FFF72AFB03461846FFF716FB6C
:101B30000246294B43F824207869FFF70FFB034640
:101B4000002B3ADC97F91F20224913465B0013440F
:101B5000DB000B4408331B68002B17D197F91F20BB
:101B60001C4913465B001344DB000B4410331B6815
:101B7000002B0BD197F91F20164913465B00134425
:101B8000DB000B4414331B68002B16D097F91F4061
:101B900097F91F30104A52F823301846FFF7D2FA4F
:101BA000034618467969FFF7E9FA03461846FFF736
:101BB000D5FA0246084B43F82420FB7FDBB2013301
:101BC000DBB2FB7797F91F30072B7FF775AF203714
:101BD000BD46B0BD38020020F802002080B588B0B4
:101BE00000AF02200121FFF743FC04200121FFF791
:101BF0003FFC4BF680333B834E4B1B684E4AA2FBA7
:101C000003231B0D9BB2013B9BB2BB8200237B8352
:101C10000023FB8207F1140348481946FEF78CFAAB
:101C200007F1140346481946FEF786FA6023BB8085
:101C30000123FB804FF461637B810023BB813B1D4B
:101C40003E481946FEF7F4FA3C480821FEF732FDFB
:101C50003B1D3A481946FEF777FB38480821FEF746
:101C600045FD3B1D35481946FEF7F6FB3348082174
:101C7000FEF75AFD3B1D31481946FEF773FC2F480D
:101C80000821FEF76DFD2D480121FEF7F3FC3B1DF9
:101C90002B481946FEF7CCFA29480821FEF70AFD21
:101CA0003B1D27481946FEF74FFB25480821FEF744
:101CB0001DFD3B1D22481946FEF7CEFB204808219A
:101CC000FEF732FD3B1D1E481946FEF74BFC1C4833
:101CD0000821FEF745FD1A480121FEF7CBFC174805
:101CE0000121FEF7A7FC16480121FEF7A3FC2020E6
:101CF0000121FFF7BDFB0F4B1B685B09114AA2FBDB
:101D00000323DB099BB2013B9BB2BB824FF47A7386
:101D10003B8300237B830023FB8207F114030A48E3
:101D20001946FEF709FA08480121FEF783FC20371F
:101D3000BD4680BD00000020851DD96F0004004015
:101D400000080040C55A7C0A0014004080B487B0E7
:101D500000AF786000237B6100233B610F23FB60B1
:101D60007B68DB78002B3AD0274BDB68DB4303F43E
:101D7000E0631B0A7B617B69C3F104033B617B6900
:101D8000FA6822FA03F3FB607B685B781A463B69CA
:101D900002FA03F37B617B689B781A46FB68134069
:101DA0007A6913437B617B691B017B61174A7B68FE
:101DB0001B787969C9B213440A4683F80023134A91
:101DC0007B681B785B09DBB218467B681B7803F0E5
:101DD0001F03012101FA03F342F820300FE00B4901
:101DE0007B681B785B09DBB218467B681B7803F0C5
:101DF0001F0301229A4000F1200341F823201C37E1
:101E0000BD465DF8047B704700ED00E000E100E0B6
:101E100080B500AF00F002F880BD00BF80B584B08F
:101E200000AF4FF480400121FFF704FB4DF6C023C3
:101E30003B600023BB800023FB8000233B81002309
:101E4000BB810C237B813B4605481946FFF72EFBDF
:101E500003480121FFF7E4FB1037BD4680BD00BFFA
:041E60000038014005
:101E640000366E01000000000000000001020304BF
:101E7400060708090000000001020304010203042C
:0C1E84000607080902040608010000001F
:0400000508000000EF
:00000001FF
