:020000040800F2
:100000003004002015090008710900087109000872
:10001000710900087109000871090008000000005A
:10002000000000000000000000000000710900084E
:10003000710900080000000071090008710900083A
:1000400071090008710900087109000871090008A8
:100050007109000871090008710900087109000898
:100060007109000871090008710900087109000888
:100070007109000871090008710900087109000878
:1000800071090008710900087109000800000000EA
:1000900000000000000000000000000071090008DE
:1000A0007109000871090008710900087109000848
:1000B0007109000871090008710900087109000838
:1000C0007109000871090008710900087109000828
:1000D0007109000839010008710900087109000858
:1000E0007109000871090008710900087109000808
:1000F00071090008710900080000000000000000FC
:100100007109000800000000710900087109000869
:1001100071090008710900087109000871090008D7
:1001200071090008710900087109000871090008C7
:10013000710900085FF808F180B500AF164B1B8805
:100140009BB203F02003002B24D0134800F0B6FB31
:1001500003461A46114B1A60114B1B680A2B0AD131
:100160000F4B1B680D4A1268D1B20E4AD1540C4B8A
:1001700000221A6009E00A4B1B685A1C08490A60F1
:10018000064A1268D1B2074AD154054B1B68054A8A
:100190000021D15480BD00BF00380140280000205C
:1001A000240000201400002080B500AF164A164B32
:1001B0001B6843F0010313601349134B5A68134B38
:1001C00013404B60104A104B1B6823F0847323F4D8
:1001D000803313600C4A0C4B1B6823F4802313609C
:1001E000094A094B5B6823F4FE035360064B4FF446
:1001F0001F029A60044B0022DA6200F00BF8044BF5
:100200004FF000629A6080BD001002400000FFF8CD
:1002100000ED00E080B500AF00F002F880BD00BF47
:1002200080B483B000AF00237B6000233B60234A8F
:10023000224B1B6843F480331360204B1B6803F48C
:1002400000333B607B6801337B603B68002B03D14C
:100250007B68B3F5A06FF0D1184B1B6803F4003333
:10026000002B02D001233B6001E000233B603B6890
:10027000012B1ED1114A114B5B6853600F4A0F4B83
:100280005B6853600D4A0D4B5B6853600B4A0B4B28
:100290005B6823F003035360084A084B5B6843F034
:1002A0000103536000BF054B5B6803F00C03042B94
:1002B000F9D10C37BD465DF8047B70470010024051
:1002C00080B489B000AF786039600023FB610023FF
:1002D0003B610023BB610023FB6000237B610023A3
:1002E000BB603B68DB7803F00F03FB613B68DB78A6
:1002F00003F01003002B05D03B689B781A46FB697E
:100300001343FB613B681B88DBB2002B44D07B6846
:100310001B687B610023BB6138E0BB69012202FAE4
:1003200003F3FB603B681B881A46FB6813403B6184
:100330003A69FB689A4226D1BB699B00FB60FB6867
:100340000F2202FA03F3BB60BB68DB437A691340F8
:100350007B61FB68FA6902FA03F37A6913437B61F4
:100360003B68DB78282B05D1BB6901229A407B686A
:100370005A6108E03B68DB78482B04D1BB69012255
:100380009A407B681A61BB690133BB61BB69072B6B
:10039000C3D97B687A691A603B681B88FF2B4AD9EE
:1003A0007B685B687B610023BB613EE0BB6908330F
:1003B0001A4601239340FB603B681B881A46FB6882
:1003C00013403B613A69FB689A422BD1BB699B00A1
:1003D000FB60FB680F2202FA03F3BB60BB68DB43E0
:1003E0007A6913407B61FB68FA6902FA03F37A6960
:1003F00013437B613B68DB78282B07D1BB6908334B
:100400001A46012303FA02F27B685A613B68DB78E3
:10041000482B07D1BB6908331A46012303FA02F2BD
:100420007B681A61BB690133BB61BB69072BBDD90E
:100430007B687A695A602437BD465DF8047B704753
:1004400080B588B000AF1020012100F02DF94FF4E5
:1004500010733B831023FB760323BB7607F118034D
:1004600037481946FFF72CFF0520012100F01CF941
:100470004FF48040012100F017F94FF40073BB8264
:100480001823FB750323BB7507F114032D48194688
:10049000FFF716FF4FF48063BB820423FB7507F15F
:1004A000140328481946FFF70BFF4DF6C0237B6065
:1004B00000233B8100237B810023BB8100233B82FF
:1004C0000C23FB813B1D2048194600F00BF91E4808
:1004D000012100F0C1F91A4A194BDB6883F040038F
:1004E000D3601948D72100F0D7F900BF1648402142
:1004F00000F0F4F90346002BF8D0114A104BDB68EA
:1005000083F04003D3600023FB610023FB6102E022
:10051000FB690133FB61FB69B3F5801FF8DB084A17
:10052000074BDB6883F40073D3600023FB6102E0B8
:10053000FB690133FB61FB69B3F5801FF8DBCAE798
:1005400000100140000801400038014080B489B02B
:1005500000AF78600023FB610023BB6100237B6157
:1005600000233B610023FB604A4B5B6803F00C03F4
:10057000FB61FB69042B07D0082B09D0002B2FD17E
:100580007B68454A1A602FE07B68434A1A602BE07B
:10059000404B5B6803F47013BB613E4B5B6803F434
:1005A00080337B61BB699B0C0233BB617B69002B91
:1005B00006D1BB69394A02FB03F27B681A6013E07B
:1005C000344BDB6A03F00F030133FB60324AFB68F4
:1005D000B2FBF3F3BA6902FB03F27B681A6003E033
:1005E0007B682D4A1A6000BF2A4B5B6803F0F0035A
:1005F000FB61FB691B09FB61294AFB6913441B78FA
:10060000DBB23B617B681A683B69DA407B685A6001
:10061000204B5B6803F4E063FB61FB691B0AFB6131
:100620001F4AFB6913441B78DBB23B617B685A6845
:100630003B69DA407B689A60164B5B6803F4605351
:10064000FB61FB69DB0AFB61154AFB6913441B78FC
:10065000DBB23B617B685A683B69DA407B68DA60F1
:100660000C4B5B6803F44043FB61FB699B0BFB6134
:100670000C4AFB6913441B78DBB23B617B68DA6888
:100680003B69B2FBF3F27B681A612437BD465DF823
:10069000047B70470010024000127A0000093D0000
:1006A000000000201000002080B483B000AF78600C
:1006B0000B46FB70FB78002B06D00949084B9A6962
:1006C0007B6813438B6106E00549054B9A697B689B
:1006D000DB4313408B610C37BD465DF8047B7047EC
:1006E0000010024080B58CB000AF78603960002304
:1006F000FB620023BB6200237B6200233B6200237A
:10070000FB617B68FB617B681B8A9BB2FB62FA6AB8
:100710004CF6FF731340FB623B68DB881A46FB6AAA
:100720001343FB62FB6A9AB27B681A827B689B89DF
:100730009BB2FB62FA6A4EF6F3131340FB623B680E
:100740009A883B681B8913439AB23B685B891343C1
:100750009BB21A46FB6A1343FB62FB6A9AB27B6840
:100760009A817B689B8A9BB2FB62FA6A4FF6FF43D1
:100770001340FB623B689B891A46FB6A1343FB628A
:10078000FB6A9AB27B689A8207F108031846FFF762
:10079000DDFEFB692E4A934202D17B69BB6201E018
:1007A0003B69BB627B689B899BB29BB21BB2002BEF
:1007B0000CDABA6A13469B0013449A001A443B6849
:1007C0001B685B00B2FBF3F37B620BE0BA6A134673
:1007D0009B0013449A001A443B681B689B00B2FBC1
:1007E000F3F37B627B6A1B4AA2FB03235B091B01B9
:1007F000FB62FB6A1B09642202FB03F37A6AD31AC9
:100800003B627B689B899BB29BB21BB2002B0CDACC
:100810003B6ADB0032330F4AA2FB03235B0903F080
:100820000703FA6A1343FB620BE03B6A1B01323396
:10083000084AA2FB03235B0903F00F03FA6A134380
:10084000FB62FB6A9AB27B681A813037BD4680BD75
:10085000003801401F85EB5180B483B000AF786051
:100860000B46FB70FB78002B08D07B689B899BB202
:1008700043F400539AB27B689A8107E07B689B89B6
:100880009BB223F400539AB27B689A810C37BD4621
:100890005DF8047B704700BF80B483B000AF786020
:1008A0000B467B807B88C3F308039AB27B689A80EF
:1008B0000C37BD465DF8047B704700BF80B483B041
:1008C00000AF78607B689B889BB2C3F308039BB240
:1008D00018460C37BD465DF8047B704780B485B080
:1008E00000AF78600B467B800023FB737B681B881E
:1008F0009AB27B8813409BB2002B02D00123FB737A
:1009000001E00023FB73FB7B18461437BD465DF8FE
:10091000047B704780B582B000AF104B7B60104BFA
:100920003B6007E03B681A1D3A607A68111D7960E8
:1009300012681A603B680B4A9342F3D30A480B498A
:100940004FF000028842B8BF40F8042BFADBFFF7F3
:100950002BFCFFF775FD0837BD4680BD7809000800
:100960000000002014000020140000202C000020B3
:0809700080B400AFFEE700BFF8
:10097800000000000102030401020304060708093D
:040988000204060857
:0400000508000000EF
:00000001FF
